:100000000C9435000C945D000C945D000C945D0024
:100010000C945D000C945D000C945D000C945D00EC
:100020000C945D000C945D000C945D000C945D00DC
:100030000C945D000C945D000C945D000C945D00CC
:100040000C944C040C945D000C94BC040C94960429
:100050000C945D000C945D000C945D000C945D00AC
:100060000C945D000C945D00E40511241FBECFEFDD
:10007000D8E0DEBFCDBF11E0A0E0B1E0E2EEF1E1FB
:1000800002C005900D92AC36B107D9F722E0ACE67C
:10009000B1E001C01D92A434B207E1F710E0C5E35E
:1000A000D0E004C02197FE010E941106C433D1079D
:1000B000C9F70E945B050C94EF080C940000219A8C
:1000C000209A0AB1006F0AB98FEF60D08FEF5ED02F
:1000D00083E30FD085E05AD082E30BD085E056D081
:1000E00088E207D08CE005D081E003D085E04ED0D7
:1000F00008950F9329980BD082E048D00F9108956E
:100100000F93299A04D081E041D00F9108950F9365
:100110001F938F930BB10F70182F107F012B0BB90A
:100120000ED08F918F930BB10F70182F1295107FF7
:10013000012B0BB904D08F911F910F910895289A2C
:1001400082E024D0289882E021D008950F931F9355
:100150002F93082F112722270A3018F00A501395E1
:10016000FBCF202F812F8063CBDF822F8063C8DFFE
:100170008FEDC6DF83E4C4DF2F911F910F910895A7
:100180000F9304E60A95F1F70F9108958F939F93CB
:10019000AF93A0E198EC000000009A95E1F7AA95D2
:1001A000C9F78A95B1F7AF919F918F9108959CD02F
:1001B00056D180E060E344E16AD186E068E145E041
:1001C00025E279D10E945F0099D000E0CDD0082FC0
:1001D00080E80E94790084E50E94800085E60E9404
:1001E00080008DE60E94800080E70E9480008AE304
:1001F0000E94800080E20E948000802F8F770E9402
:10020000A6008AE80E94790007FF0DC01091100631
:10021000113011F11230F9F111E0109310061FE0C6
:100220001093110619C010E01093100610931106D8
:100230002D988BE50E94800081E40E94800087E574
:100240000E9480008BE40E9480008DE50E94800067
:1002500080E20E94800031C010911106115010936D
:100260001106103029F412E0109310062D9A13C0D5
:100270008BE50E9480008AE50E9480008AE70E9448
:1002800080008AE70E9480008DE50E94800080E265
:100290000E94800012C08BE50E94800081E40E94D1
:1002A00080008CE40E94800082E50E9480008DE442
:1002B0000E9480008DE50E94800015D148D1809178
:1002C0000106609102064091030620910406009108
:1002D0000506E0900606C09007060E94EE0412E0B4
:1002E000A7D11A95E9F771CF239A2498259A229AD3
:1002F0002A9A01E50CBD259A2D98089581E00E9467
:10030000790091D180E80E94790083E50E94800005
:100310008CE60E94800085E60E94800085E60E94AF
:10032000800080E70E94800083E50E94800089E7CA
:100330000E9480008EE60E94800083E60E9480007A
:1003400080EC0E94790086E70E94800081E30E9491
:1003500080008EE20E94800080E30E94800014E012
:1003600067D11A95E9F708950F931F934F935F9301
:1003700043E02A9858E20000000000005A95D9F79F
:1003800000E00EBD1DB517FFFDCF0EB52A9A023055
:1003900028F44A9571F70091000602C00093000608
:1003A000802F5F914F911F910F9108954498459828
:1003B0003C983D9808953C983D984AD03C9A48D046
:1003C0003D9A46D008953C9A43D03D9841D03C9800
:1003D0003FD008950F931F9308E0182F111F10F0BE
:1003E0003C9A01C03C9834D03D9832D03D9A30D0F0
:1003F0000A95A1F73C982CD03D982AD006B10071FF
:100400003D9A26D0802F1F910F9108950F931F932F
:100410002F93282F10E008E03C981AD03D9818D070
:10042000110F86B184FD11603D9A12D00A95A9F78B
:10043000203011F03C9801C03C9A0AD03D9808D079
:100440003D9A06D03C98812F2F911F910F910895CE
:100450000F930AE000000A95E9F70F910895A6DFCF
:10046000F7DFA9DF80EDB6DF8FE0B4DFA4DF81ED39
:10047000B1DF81E0CBDF082FA6DF0F779CDF80EDB7
:10048000A9DF8FE0A7DF802FA5DF9DDF08958F9381
:100490006F934F9390DF80ED9DDF80E09BDF4F9166
:1004A0006F918F918F9396DF862F94DF842F92DF49
:1004B0008ADF8F9108958F936F934F932F937BDFF4
:1004C00080ED88DF83E086DF2F914F916F918F91D0
:1004D0008F9380DF862F7EDF842F7CDF822F7ADF71
:1004E00072DF8F91089567DF80ED74DF80E072DF47
:1004F00062DF81ED6FDF80E089DF8093010680E0BD
:1005000085DF8093020680E081DF8093030680E030
:100510007DDF8093040680E079DF8093050680E02C
:1005200075DF8093060681E071DF809307064BDF5D
:10053000089541DF80ED4EDF81E14CDF3CDF81ED4E
:1005400049DF81E063DF082F3EDF802F08950F939E
:100550001F932F933F9380EC0E9479000091060631
:10056000102F12951F700F70812F80630E948000E2
:10057000802F80630E9480008FE20E9480000091A3
:100580000506102F12951F700F70812F80630E9437
:100590008000802F80630E9480008FE20E94800094
:1005A00000910706102F12951F700F7082E30E94B2
:1005B000800080E30E948000812F80630E94800081
:1005C000802F80630E94800080E20E948000009162
:1005D0000306102F12951F700F70812F80630E94E9
:1005E0008000802F80630E9480008AE30E94800048
:1005F00000910206102F12951F700F70812F8063DB
:100600000E948000802F80630E9480003F912F9184
:100610001F910F9108950000000008954AE5FBDF47
:100620004A95E9F7089558E2F9DF5A95E9F70895F0
:100630004FEF5FEF64E16A95F1F75A95D9F74A9564
:10064000C1F70895AF92BF92CF92DF92EF92FF92DF
:100650000F931F93CF93DF936C017B018B01040FEA
:10066000151FEB015E01AE18BF08C017D10759F086
:100670006991D601ED91FC910190F081E02DC601C8
:100680000995892B79F7C501DF91CF911F910F91C2
:10069000FF90EF90DF90CF90BF90AF900895FC0156
:1006A000538D448D252F30E0842F90E0821B930BD7
:1006B000541710F0CF96089501970895FC01918D7D
:1006C000828D981761F0A28DAE0FBF2FB11D5D9680
:1006D0008C91928D9F5F9F73928F90E008958FEF22
:1006E0009FEF0895FC01918D828D981731F0828DD6
:1006F000E80FF11D858D90E008958FEF9FEF08952D
:10070000FC01918D228D892F90E0805C9F4F821B90
:1007100091098F739927089587EA91E00E948003D9
:1007200021E0892B09F420E0822F089580E090E0F9
:10073000892B29F00E948C0381110C9400000895EC
:10074000FC01A48DA80FB92FB11DA35ABF4F2C9146
:10075000848D90E001968F739927848FA689B7893D
:100760002C93A089B1898C91837080648C93938D34
:10077000848D981306C00288F389E02D80818F7DD7
:1007800080830895EF92FF920F931F93CF93DF938F
:10079000EC0181E0888F9B8D8C8D98131AC0E889BD
:1007A000F989808185FF15C09FB7F894EE89FF898C
:1007B0006083E889F98980818370806480839FBF2A
:1007C00081E090E0DF91CF911F910F91FF90EF902A
:1007D0000895F62E0B8D10E00F5F1F4F0F7311273A
:1007E000E02E8C8D8E110CC00FB607FCFACFE88975
:1007F000F989808185FFF5CFCE010E94A003F1CF5A
:10080000EB8DEC0FFD2FF11DE35AFF4FF0829FB7E8
:10081000F8940B8FEA89FB8980818062CFCFCF93D8
:10082000DF93EC01888D8823B9F0AA89BB89E88918
:10083000F9898C9185FD03C0808186FD0DC00FB6BE
:1008400007FCF7CF8C9185FFF2CF808185FFEDCF3C
:10085000CE010E94A003E9CFDF91CF910895CF93FD
:10086000DF93FC0101900020E9F73197AF01481BAD
:10087000590BBC0187EA91E00E942203EC0142E09F
:1008800050E062E171E087EA91E00E9422038C0F60
:100890009D1FDF91CF9108951F920F920FB60F9277
:1008A00011242F933F938F939F93AF93BF93809186
:1008B000A3019091A401A091A501B091A60130914E
:1008C000A20123E0230F2D3758F50196A11DB11D7C
:1008D0002093A2018093A3019093A401A093A5016A
:1008E000B093A60180919E0190919F01A091A001DB
:1008F000B091A1010196A11DB11D80939E0190931D
:100900009F01A093A001B093A101BF91AF919F91CE
:100910008F913F912F910F900FBE0F901F901895C0
:1009200026E8230F0296A11DB11DD2CF1F920F9270
:100930000FB60F9211242F933F934F935F936F93B2
:100940007F938F939F93AF93BF93EF93FF9387EA28
:1009500091E00E94A003FF91EF91BF91AF919F9111
:100960008F917F916F915F914F913F912F910F9058
:100970000FBE0F901F9018951F920F920FB60F92F7
:1009800011242F938F939F93EF93FF93E091B701DF
:10099000F091B8018081E091BD01F091BE0182FD2E
:1009A0001BC090818091C0018F5F8F732091C10126
:1009B000821741F0E091C001F0E0E955FE4F958FBC
:1009C0008093C001FF91EF919F918F912F910F9094
:1009D0000FBE0F901F9018958081F4CFCF92EF92A9
:1009E0000F931F922F932C2D22952F709AE03C2D60
:1009F0003F70C32E299FC00C11241F92CF92202F2D
:100A000030E054E0359527955A95E1F723700F7043
:100A1000299F000D11241F920F93E4FA222720F939
:100A20003E2D3F70E32E929FE00C11241F92EF9217
:100A3000282F30E074E0359527957A95E1F72770F7
:100A40008F70299F800D11241F928F93262F30E0E5
:100A5000E4E035952795EA95E1F727706F70299FB7
:100A6000600D11241F926F93242F30E0F4E0359530
:100A70002795FA95E1F723704F70299F400D1124B7
:100A80001F924F938BE291E09F938F938CE691E0BE
:100A90009F938F930E9417068DB79EB742960FB60D
:100AA000F8949EBF0FBE8DBF8CE691E00F91EF9042
:100AB000CF900C942F04789484B5826084BD84B563
:100AC000816084BD85B5826085BD85B5816085BD49
:100AD00080916E00816080936E0010928100809101
:100AE0008100826080938100809181008160809389
:100AF0008100809180008160809380008091B100AE
:100B000084608093B1008091B00081608093B000D8
:100B100080917A00846080937A0080917A0082606C
:100B200080937A0080917A00816080937A0080912E
:100B30007A00806880937A001092C100E091B7013A
:100B4000F091B80182E08083E091B301F091B401AB
:100B50001082E091B501F091B6018FEC8083109284
:100B6000BF01E091BB01F091BC0186E08083E09180
:100B7000B901F091BA01808180618083E091B9016F
:100B8000F091BA01808188608083E091B901F09191
:100B9000BA01808180688083E091B901F091BA0147
:100BA00080818F7D808385E191E00E942F040E94E7
:100BB000D700C0E0D0E02097F1F30E948C03882397
:100BC000D1F30E940000F7CFE7EAF1E0138212822E
:100BD00088EE93E0A0E0B0E084839583A683B7839A
:100BE00084E091E09183808385EC90E09587848711
:100BF00084EC90E09787868780EC90E0918B808BE7
:100C000081EC90E0938B828B82EC90E0958B848BCF
:100C100086EC90E0978B868B118E128E138E148E3D
:100C20000895EE0FFF1F0590F491E02D0994AEE0BA
:100C3000B0E0EDE1F6E00C94C6080D891E8986E06F
:100C40008C831A8309838FEF9FE79E838D83AE0188
:100C5000475E5F4F6F89788DCE0101960E943A06FC
:100C60002F813885020F131FF80110822E96E4E0C1
:100C70000C94E208ABE0B0E0E0E4F6E00C94B808D5
:100C80007C013B018A01FC0117821682838181FF6E
:100C9000C8C1CE0101965C01F7019381F30193FD78
:100CA000859193FF81913F01882309F453C18532D7
:100CB00039F493FD859193FF81913F01853229F4A9
:100CC000B70190E00E942A08E7CF912C212C312C0B
:100CD000FFE1F31538F08B3211F190F4803209F115
:100CE000833229F137FC3CC020ED280F2A3050F523
:100CF00036FE20C08AE0989E200D1124922E06C058
:100D00008D3291F0803371F7689430F8F30193FDE0
:100D1000859193FF81913F018111DACF21C06894C1
:100D200031F8689432F8F2CF689433F8EFCF6894D2
:100D300034F8ECCFEAE02E9E200D1124222E689488
:100D400035F8E4CF8E3229F436FC04C1689436F8C5
:100D5000DDCF8C3619F4689437F8D8CF8836B1F2E5
:100D6000982F9F7D95549330E0F08336A1F183371F
:100D7000C1F1833509F063C02801F2E04F0E511C28
:100D8000F801C080D180692D70E036FC02C06FEFA1
:100D90007FEFC6010E9414084C01689437F8820165
:100DA0000AC00C5F1F4FFFE3F98388248394912CC2
:100DB0006501E89437F833FE2DC0522C811491045C
:100DC00071F5552009F468CFB70180E290E00E94E8
:100DD0002A085A94F6CFF801808189830E5F1F4F4D
:100DE000E4CF2801F2E04F0E511CF801C080D18001
:100DF000692D70E036FC02C06FEF7FEFC6010E94E4
:100E00001F084C018201D5CFB70180E290E00E941B
:100E10002A082A942814190409F0B0F7CECFF60155
:100E200037FC859137FE81916F01B70190E00E94F8
:100E30002A0851105A94F1E08F1A9108BFCF8436D6
:100E400019F0893609F077C0F80137FE6BC0608170
:100E50007181828193810C5F1F4FF32DFF763F2EAE
:100E600097FF09C090958095709561957F4F8F4F42
:100E70009F4F689437F82AE030E0A5010E945A0895
:100E8000C82ECA188C2C432C36FE0CC0E89440F8AF
:100E9000C91440F434FE05C032FC03C0F32DFE7EBD
:100EA0004F2E892C44FE95C0FE01EC0DF11D808172
:100EB000803309F087C0242D297E422E842D88702E
:100EC000582E43FC95C040FE8FC09C2C821418F411
:100ED0002C0C922C981844FE91C0B70180E390E04E
:100EE0000E942A0842FE09C088E790E041FE02C045
:100EF00088E590E0B7010E942A08C91408F48AC066
:100F0000CA94D12C9FEFC91AD90ACA0CDB1CF6016E
:100F100082916F01B70190E00E942A08AC14BD04D1
:100F2000B1F74FCF60817181072E000C880B990BB0
:100F30000E5F1F4F92CFD32CE894D4F82AE030E014
:100F4000853739F1232D297FD22E8F3601F148F4D0
:100F50008835A9F0F701868197812B96E2E10C9400
:100F6000D408803749F08837A9F7D4FE02C06894C6
:100F7000D2F820E130E00DC06894D4F8F6CF34FE0A
:100F800003C0822F8660D82E20E132E002C028E024
:100F900030E0F801D7FE0FC06081718182819381BA
:100FA0000C5F1F4FA5010E945A08C82ECA183D2C7D
:100FB000E89437F867CF6081718190E080E00E5F40
:100FC0001F4FF0CF42FC02C0839478CF8394839468
:100FD00075CF842D867809F471CFF6CFB70180E202
:100FE00090E00E942A0883948214C0F3512C73CF9E
:100FF000522C5818821408F46ECFF8CF842D8678BE
:1010000009F47BCF8BE241FE80E247FC8DE2B70121
:1010100090E071CFB70180E390E00E942A089A9493
:101020006CCF8FEF9FEF99CFFC010590615070401E
:101030000110D8F7809590958E0F9F1F0895FC01A1
:101040006150704001900110D8F7809590958E0FF7
:101050009F1F08950F931F93CF93DF93182F092F8E
:10106000EB018B8181FD09C01FEF0FEF812F902FC6
:10107000DF91CF911F910F91089582FF14C02E81AF
:101080003F818C819D81281739073CF4E881F981E3
:10109000CF0101969983888310838E819F81019669
:1010A0009F838E83E3CFE885F985812F0995892B6E
:1010B000A1F3DACFFA01AA27283051F1203181F1CA
:1010C000E8946F936E7F6E5F7F4F8F4F9F4FAF4F50
:1010D000B1E03ED0B4E03CD0670F781F891F9A1F63
:1010E000A11D680F791F8A1F911DA11D6A0F711D17
:1010F000811D911DA11D20D009F468943F912AE023
:10110000269F11243019305D3193DEF6CF0108950A
:10111000462F4770405D4193B3E00FD0C9F7F6CF3B
:10112000462F4F70405D4A3318F0495D31FD405203
:10113000419302D0A9F7EACFB4E0A6959795879599
:1011400077956795BA95C9F7009761057105089578
:101150009B01AC010A2E0694579547953795279524
:10116000BA95C9F7620F731F841F951FA01D0895BC
:101170002F923F924F925F926F927F928F929F92A7
:10118000AF92BF92CF92DF92EF92FF920F931F9395
:10119000CF93DF93CDB7DEB7CA1BDB0B0FB6F89446
:1011A000DEBF0FBECDBF09942A88398848885F8486
:1011B0006E847D848C849B84AA84B984C884DF80F7
:1011C000EE80FD800C811B81AA81B981CE0FD11DDB
:1011D0000FB6F894DEBF0FBECDBFED010895F894B1
:0211E000FFCF3F
:1011E20000000000C20322034F030F0480035E03CA
:1011F20072030D0A00736C65657073796E63205318
:1012020074617274696E672E2E2E005B52544320F5
:1012120044454255475D2054696D653A2025303278
:10122200643A253032643A25303264204461746570
:101232003A20253032642F253032642F3230253067
:0C1242003264204461793A2025640000E9
:00000001FF
